:100000006CEF07F06896000C046ED8CF05F0E0CFD7
:1000100006F00001E9CF0CF0EACF07F0E1CF08F0DD
:10002000E2CF09F0D9CF0AF0DACF0BF0F3CF12F01C
:10003000F4CF13F0FACF14F0F5CF15F0F6CF16F099
:10004000F7CF17F000C00EF001C00FF002C010F0A3
:1000500003C011F09DA030EF00F09EB083EF06F0DA
:10006000A0AA36EF00F0A1BA44EF06F00EC000F0EF
:100070000FC001F010C002F011C003F00CC0E9FF86
:1000800007C0EAFF078E08C0E1FF09C0E2FF0AC00F
:10009000D9FF0BC0DAFF12C0F3FF13C0F4FF14C086
:1000A000FAFF15C0F5FF16C0F6FF17C0F7FF0450A2
:1000B00006C0E0FF05C0D8FF1000F76ACA0FF66E51
:1000C000000EF7220900F55012000003FFFFFFFFAA
:1000D000FFFFFFFFFFFFFFFFFFFFF76AEA0FF66E6C
:1000E000000EF7220900F550120040000800000041
:1000F0000000000000000000000000000000000000
:1001000000000000000000000000F76A1A0FF66E01
:10011000010EF7220900F550120005010904A101A2
:100120000901A100093009311581257F7508950263
:100130008102050919012908150025017501950895
:100140008102C0C0F76A540FF66E010EF722090053
:10015000F55012000000F76A660FF66E010EF722E6
:100160000900F55012002A000000F76A7A0FF66EB7
:10017000010EF7220900F5501200090229000101C1
:1001800000C0320904000002030000000921000140
:100190000001222A000705810308000A0705010360
:1001A00008000A00F76AB40FF66E010EF722090084
:1001B000F55012000100F76AC60FF66E010EF72225
:1001C0000900F55012001200F76AD80FF66E010E02
:1001D000F7220900F5501200120110010000004042
:1001E00061045700000101020001F76AFA0FF66E80
:1001F000010EF7220900F550120000040C00F76A06
:100200000E0FF66E020EF7220900F55012000403DD
:10021000090408035300620073002E0355005300C5
:10022000420020004B006500790062006F00610011
:100230007200640020006200790020005300610019
:100240006200610073003A006D92699468A402D064
:100250006894FCD750EF06F0400E0401016F040EC5
:10026000036F100E026F880E006F046B040E076F91
:10027000500E066F0001000C70A002D0EDDF7090F0
:10028000689A59EF06F06A6A68925FEF06F0499043
:1002900048BE4980489E4850100803E2000E016E97
:1002A00017D049A00BD0036A485007DFFF0802E1CE
:1002B000000E01D0010E016E0BD00AD0036A485027
:1002C000FCDEFF0802E1000E01D0010E016E00D03D
:1002D000000C036A4750700FE96E0F0E0320EA6EA0
:1002E000EF6A47C048F0D3DF015218E04750080DCD
:1002F000F350496AE96E040E4924EA6EEF6A4750EA
:10030000080DF350496A486E040E4826000E492233
:1003100048C0E9FF040E4924EA6EEF6A000C010EA2
:10032000466E46500F0805E346C047F0D2DF462A26
:10033000F8D7000C3C6A3C520AE1036A3C50240F97
:10034000E96E000E0320EA6EEF6A3C2AF4D71B6ABE
:10035000010E1C6E1A6A000C6A6A686A9F0E6B6E48
:100360003D0E696E6E6ADBDFE5DF160E706E68A605
:1003700002D048DEFCD76D986FDF030E1F6E65EF6D
:1003800006F0698468986D826BEF06F0689C71EFE7
:1003900006F041C020F0000CFF0E206E000C3F6AFA
:1003A00023522AE03F503F0827E31D50FC0F17E27D
:1003B000040F06EF02F0036A2250D7DE406E0FD022
:1003C000036A2250A2DE406E0AD0036A225017DF71
:1003D000406E05D0036A2250F7DE406E00D0222A1C
:1003E00023063F503F2A036A500FE96E040E032094
:1003F000EA6E40C0EFFFD4D7235204E13F504008DB
:1004000001E01A6A3FC041F0C4DF000CE824F76A3B
:10041000F736270FF66E040EF7220A00F550FA6E33
:100420000800F550F96EB603C003CA03D403226A6C
:100430001D6A04011351010A000109E0030A0CE0DE
:10044000010A0DE0220A18E0030A2BE047D0120E41
:10045000236E030E1D6E44D0290E236E41D0020E72
:100460001D6E036A040112510001BFDE226E036A91
:100470002250C5DE236E34D0D89004011235036AB1
:10048000000199DE0900F5CF03F0226E223C01D075
:1004900006D0036A225069DE236E22D002D07CDFB0
:1004A0002BD0D89004011435036A00014BDE0900FB
:1004B000F5CF03F0226E223C01D00ED0010E1D6E4E
:1004C000D89004011435036A000145DE0900F5CF18
:1004D00003F0236E05D002D05FDF0ED05DDF0CD0BD
:1004E0000401175305E12350165D02E216C423F000
:1004F000010E1A6E000153DF000C3E5204E1040E9F
:100500001F6E0DDFB1D0050E1F6E040E416E900EF2
:10051000406E010E3F6E3F500F08D8A0A5D03FC0DF
:1005200047F0D7DE426A036A3F50C7DDFF084DE05F
:10053000040E426ED8903F34036ACFDD0900F5CF38
:1005400003F0436E03C044F03F50080DF350476A78
:10055000466E010E4624016E000E4720036E01C058
:10056000E9FF040E0324EA6E43C0EFFF3F50080D7D
:10057000F350476A466E020E4624016E000E472075
:10058000036E01C0E9FF040E0324EA6E41C0ECFFD4
:10059000ED5240C0EFFFD8903F34036A9EDD090062
:1005A000F5CF03F0402603504122880E456E44B03B
:1005B000458044B245823F50080DF350476AE96ECA
:1005C000040E4724EA6E45C0EFFF036A3F5075DD15
:1005D000FF0834E042823F50080DF350476A466EF0
:1005E000040E4626000E4722020E4624016E000E1F
:1005F0004720036E01C0E9FF040E0324EA6E41C0E8
:10060000ECFFED5240C0EFFFD8903F34036A65DD48
:100610000900F5CF03F04026035041223F50080D5A
:10062000F350476A466E040E4626000E472246C027
:10063000E9FF040E4724EA6E400EEF6E42500608B2
:1006400002E10E0E426E036A3F5037DD0108D8A466
:100650004288036A3F50700FE96E0F0E0320EA6E66
:1006600042C0EFFF3F2A57D781EF03F00401115139
:10067000000A00010DE0010A14E0020A1EE0060A69
:1006800027E0030A2CE00E0A2CE0010A30E03DD0FE
:100690001CC050F40401516B020E416E000179DE62
:1006A00036D00401122D06D0010E1C16416A00013D
:1006B00070DE02D0000170DE2AD00401122D05D0B8
:1006C0001C82416A000165DE02D0000165DE1FD098
:1006D000020E1A6E12C421F0416A5BDE18D0A7DE4A
:1006E00016D01BC050F4010E416E53DE10D0040131
:1006F0001251010808E312C41BF012C43EF00001BD
:10070000FCD6416A46DE000102D046DE00D094EFFE
:1007100004F01BC03EF004011151000A000107E083
:100720000A0A0DE0010A28E00D0A38E039D0040178
:10073000506B516B020E416E00012BDE33D03E52E6
:1007400019E0010E3E5C036A2DDD016E0401145DAB
:10075000D8A002D000010ED0036A1451240FE96E14
:10076000000E0320EA6EEFCF50F4010E416E00013F
:1007700010DE01D011DE16D03E520EE0036A0401F5
:100780001451240FE96E000E0320EA6E12C4EFFF2D
:10079000416A0001FEDD01D0FFDD04D048DE02D059
:1007A000FBDD00D094EF04F03F903EBE3F803E9EC4
:1007B0003FA011D03E50080DF350416A406E040E28
:1007C0004026000E412240C0E9FF040E4124EA6E9B
:1007D000880EEF6E09D03E50080DF350416AE96E65
:1007E000040E4124EA6EEF6A56EF04F03F903EBEDD
:1007F0003F803E9E3FA011D03E50080DF350416A0D
:10080000406E040E4026000E412240C0E9FF040E57
:100810004124EA6E840EEF6E0AD03E50080DF3506C
:10082000416AE96E040E4124EA6E840EEF6E5CEFBD
:1008300004F03F903EBE3F803E9E3FA011D03E5010
:10084000080DF350426A416E040E4126000E42220A
:1008500041C0E9FF040E4224EA6EEFCF40F00AD017
:100860003E50080DF350426AE96E040E4224EA6ECF
:10087000EFCF40F040AE02D040B402D0000E01D025
:10088000010E016E66EF04F014C448F000DD015261
:1008900029E004011151010A000105E0020A09E002
:1008A000030A0DE01DD014C43EF07ED7416A71DD0D
:1008B00019D014C43EF09AD7416A6BDD13D00401FD
:1008C000506B516B14C43EF00001B3D7015204E0E9
:1008D000010E0401506F0001020E416E5ADD02D07C
:1008E0005BDD00D094EF04F00401115100D0000151
:1008F00053DD00D094EF04F01A6A040110517F0B0D
:10090000000A000107E0010A07E0030A07E0230AE2
:1009100007E008D0ABD608D0FCD606D0B5D704D0B7
:10092000E3D702D039DD00D0B3EF05F03E50080D1B
:10093000F350446AE96E040E4424EA6EEFCF40F0AF
:100940003F50020806E140AC02D03F6A02D0010EDF
:100950003F6E3F50030813E1840E406E3E50080D79
:10096000F350446A436E040E4326000E442243C0F3
:10097000E9FF040E4424EA6E840EEF6E07D03F2C8C
:1009800003D0C80E406E02D0880E406ED8903E3420
:10099000036A6DEC00F00900F5CF03F0416E03C06F
:1009A00042F03E50080DF350446A436E010E43245A
:1009B000016E000E4420036E01C0E9FF040E032403
:1009C000EA6E41C0EFFF42B0408042B240823E50EA
:1009D000080DF350446AE96E040E4424EA6E40C0E8
:1009E000EFFF000C036A4350700FE96E0F0E0320F7
:1009F000EA6EEF5212E04350080DF350456A446E20
:100A0000040E4426000E452244C0E9FF040E45248E
:100A1000EA6EEFCF44F044AE02D0000E01D0010EDA
:100A2000016E000C3EC043F0DDDF015262E03E503B
:100A3000080DF350446A436E040E4326000E442210
:100A4000010E4324016E000E4420036E01C0E9FF35
:100A5000040E0324EA6E3FC0EFFF4150020817E185
:100A60003E50080DF350446A436E040E4326000EB8
:100A7000442243C0E9FF040E4424EA6EEFCF42F063
:100A800042AC02D0416A02D0010E416E13D04150F7
:100A9000040810E13E50080DF350446AE96E040E5C
:100AA0004424EA6EEFCF42F042AC03D0010E416E17
:100AB00001D0416A412C03D0C80E426E02D0880E8C
:100AC000426E40B0428040B242823E50080DF35028
:100AD000446A436E040E4326000E442243C0E9FFDD
:100AE000040E4424EA6E42C0EFFF010E016E03D0F3
:100AF00000D0000E016E000C3E5200E1000C3FC021
:100B00006EFF3F5203E0040E1F6E02D0020E1F6EF6
:100B10008FEF05F01B6A1A6A21C03FF0F0D79BEFF8
:100B200005F03E5208E11A2C02D039DC04D01A50EC
:100B3000020801E1EFD7000C1E303C6E3C323C3223
:100B40001F0E3C161E5242E1040100513C0B3D6E4B
:100B5000430E00173D5034081EE10451800B01E0A4
:100B6000046B0001C9D66D98203C05D03E6A030E87
:100B70003F6EDCDE0ED03E6A020E3F6ED7DE2050A6
:100B8000FE0807E03E6A406A20C03FF0040E416E56
:100B900049DF19D004013D50040816E13E6A000106
:100BA000ABDF3E6A020E3F6EC1DE2050FE080AE057
:100BB000203C01D007D03E6A406A20C03FF0010EC1
:100BC000416E30DF00D004015CD000011E500408EB
:100BD00014E1430E04010417FF0E206E3E6A00016B
:100BE000A0DF203C01D008D03E6A406A20C03FF020
:100BF000020E416E17DF00D043D01EB41BD03C5014
:100C0000080DF3503F6A016E040E3F24036E3C5002
:100C1000080DF350416AE96E040E4124EA6EEF506C
:100C2000430B03C0EAFF01C0E9FFEF6E3CC03EF09A
:100C300063DF26D03C50080DF3503F6A3E6E040E31
:100C40003E26000E3F223EC001F0040E3F24036EFC
:100C50003C50080DF350416A406E040E4026000ED1
:100C6000412240C0E9FF040E4124EA6EEF50430BDD
:100C700003C0EAFF3EC0E9FFEF6E3CC03EF051DF2B
:100C8000040100017BEF06F0A19A1F5201E139D067
:100C9000685237E068A404D069A402D024EF01F0C0
:100CA0006DA201D02ED068AA04D069AA02D03CEF70
:100CB00001F068A204D069A202D043EF01F068A05D
:100CC00004D069A002D0ACEF01F068A804D069A8F4
:100CD00002D0C1EF01F068AC04D069AC02D0C6EF1D
:100CE00001F03B6A68A608D069A606D06CCF1EF05A
:100CF00002EC00F021D701D004D03B503B2A03087E
:100D0000F1E236EF00F0FE0ECF6E0C0ECE6E2652E4
:100D100005E189849294899292922CD0262C0BD052
:100D200089949294276A928080A002D0D89001D0B2
:100D3000D88027321FD026500F080EE1928080A065
:100D400002D0D89001D0D88027328992929227C0C1
:100D500025F0FF0E266E0ED026A00AD0928080A02D
:100D600002D0D89001D0D88027328992929202D0B6
:100D700089829292262A26500F0801E2266A9E90C6
:100D800036EF00F06D6A696A080E6F6E9450300994
:100D9000946E1F6A196AF2BE198EF29E9AEC01F0E7
:100DA00019BEF28ED5EF06F0EDD7FBEF06F0196A0B
:100DB000F2BE198EF29E9AEC01F019BEF28E6D6AA7
:100DC000140E6F6E696A6D86010E1F6EEBEF06F0F2
:100DD0006DB601D0ECD71F2C0BD06DBA09D0686A64
:100DE000696AA08AC00EF212110E696E020E1F6EA1
:100DF000FCEF06F0D9D7ECD71F500208FCE180EFDA
:100E000007F01B50016E000CEA6A2B0EE96EEF50E2
:100E10000EE00F0E016E006A002EFED7012EFBD7EA
:100E20008F0E006E002EFED70000EF2EF2D7000CC2
:100E3000196AF2BE198EF29E2BC043F0D3DD19BEA3
:100E4000F28E015245E02B50080DF350346A336E98
:100E5000040E3326000E3422020E3324016E000EDF
:100E60003420036E01C0E9FF040E0324EA6EECCFC8
:100E700003F0ED52EFCF31F003C032F032C0EAFFA1
:100E800031C0E9FF2DC0E2FF2CC0E1FF2FC002F00E
:100E90002EC001F0015202E0022A02D0025206E006
:100EA000E6CFEEFF012EFCD7022EFAD7196AF2BE6A
:100EB000198EF29E2BC03EF02FC040F02EC03FF0A6
:100EC00030C041F0AFDD19BEF28E015003D000D02A
:100ED000000E016EC8EF07F0F86AD09E078EEA6A2E
:100EE000E96A1F6A236A266AC150C00B0F09C16EE6
:100EF000070EB46E276A010E926E850ECD6E7AD7FC
:100F0000D1809D80C00EF2128A9093908A92939223
:100F100078DF015207E1040093908A70FA0E2B6E7D
:100F200073DFF6D78A8093908A8293926ADF0152A8
:100F300033E00400286A296A2A6A25A001D02A80A1
:100F400025A201D02A8225A401D02A8425A601D079
:100F50002A8625A803D02A88810E296E25AA03D0C7
:100F60002A8A7F0E296E25AC03D0810E286E2A8C2A
:100F700025AE03D07F0E286E2A8E010E2B6E2D6AB1
:100F8000280E2C6E2F6A030E2E6E020E306E50D776
:0C0F90000A0E2B6E39DFCAD7B7D703005A
:020000040030CA
:0E00000022CE3E1E008781000FC00FE00F4091
:00000001FF
;PIC18F4550
;CRC=AAEE  CREATED="07-jul-12 19:39"
